{
  "contractName": "Donation",
  "abi": [
    {
      "inputs": [],
      "stateMutability": "nonpayable",
      "type": "constructor"
    },
    {
      "anonymous": false,
      "inputs": [
        {
          "indexed": true,
          "internalType": "address",
          "name": "donor",
          "type": "address"
        },
        {
          "indexed": false,
          "internalType": "uint256",
          "name": "amount",
          "type": "uint256"
        }
      ],
      "name": "DonationReceived",
      "type": "event"
    },
    {
      "inputs": [],
      "name": "admin",
      "outputs": [
        {
          "internalType": "address",
          "name": "",
          "type": "address"
        }
      ],
      "stateMutability": "view",
      "type": "function"
    },
    {
      "inputs": [
        {
          "internalType": "address",
          "name": "",
          "type": "address"
        }
      ],
      "name": "donations",
      "outputs": [
        {
          "internalType": "uint256",
          "name": "",
          "type": "uint256"
        }
      ],
      "stateMutability": "view",
      "type": "function"
    },
    {
      "inputs": [],
      "name": "donate",
      "outputs": [],
      "stateMutability": "payable",
      "type": "function"
    },
    {
      "inputs": [
        {
          "internalType": "uint256",
          "name": "amount",
          "type": "uint256"
        },
        {
          "internalType": "address payable",
          "name": "recipient",
          "type": "address"
        }
      ],
      "name": "withdraw",
      "outputs": [],
      "stateMutability": "nonpayable",
      "type": "function"
    }
  ],
  "bytecode": "0x608060405234801561000f575f80fd5b503360015f6101000a81548173ffffffffffffffffffffffffffffffffffffffff021916908373ffffffffffffffffffffffffffffffffffffffff16021790555061051e8061005d5f395ff3fe60806040526004361061003d575f3560e01c8062f714ce14610041578063cc6cb19a14610069578063ed88c68e146100a5578063f851a440146100af575b5f80fd5b34801561004c575f80fd5b506100676004803603810190610062919061031c565b6100d9565b005b348015610074575f80fd5b5061008f600480360381019061008a9190610395565b6101b0565b60405161009c91906103cf565b60405180910390f35b6100ad6101c4565b005b3480156100ba575f80fd5b506100c3610266565b6040516100d091906103f7565b60405180910390f35b60015f9054906101000a900473ffffffffffffffffffffffffffffffffffffffff1673ffffffffffffffffffffffffffffffffffffffff163373ffffffffffffffffffffffffffffffffffffffff1614610168576040517f08c379a000000000000000000000000000000000000000000000000000000000815260040161015f9061046a565b60405180910390fd5b8073ffffffffffffffffffffffffffffffffffffffff166108fc8390811502906040515f60405180830381858888f193505050501580156101ab573d5f803e3d5ffd5b505050565b5f602052805f5260405f205f915090505481565b345f803373ffffffffffffffffffffffffffffffffffffffff1673ffffffffffffffffffffffffffffffffffffffff1681526020019081526020015f205f82825461020f91906104b5565b925050819055503373ffffffffffffffffffffffffffffffffffffffff167f264f630d9efa0d07053a31163641d9fcc0adafc9d9e76f1c37c2ce3a558d2c523460405161025c91906103cf565b60405180910390a2565b60015f9054906101000a900473ffffffffffffffffffffffffffffffffffffffff1681565b5f80fd5b5f819050919050565b6102a18161028f565b81146102ab575f80fd5b50565b5f813590506102bc81610298565b92915050565b5f73ffffffffffffffffffffffffffffffffffffffff82169050919050565b5f6102eb826102c2565b9050919050565b6102fb816102e1565b8114610305575f80fd5b50565b5f81359050610316816102f2565b92915050565b5f80604083850312156103325761033161028b565b5b5f61033f858286016102ae565b925050602061035085828601610308565b9150509250929050565b5f610364826102c2565b9050919050565b6103748161035a565b811461037e575f80fd5b50565b5f8135905061038f8161036b565b92915050565b5f602082840312156103aa576103a961028b565b5b5f6103b784828501610381565b91505092915050565b6103c98161028f565b82525050565b5f6020820190506103e25f8301846103c0565b92915050565b6103f18161035a565b82525050565b5f60208201905061040a5f8301846103e8565b92915050565b5f82825260208201905092915050565b7f4f6e6c792061646d696e2063616e2077697468647261770000000000000000005f82015250565b5f610454601783610410565b915061045f82610420565b602082019050919050565b5f6020820190508181035f83015261048181610448565b9050919050565b7f4e487b71000000000000000000000000000000000000000000000000000000005f52601160045260245ffd5b5f6104bf8261028f565b91506104ca8361028f565b92508282019050808211156104e2576104e1610488565b5b9291505056fea2646970667358221220134c958f6fb0e973d3ab62ef61e8000b00bbebc20bec99271f903a9bde3e6ad264736f6c63430008140033",
  "immutableReferences": {},
  "source": "// SPDX-License-Identifier: MIT\r\npragma solidity ^0.8.20;\r\n\r\ncontract Donation {\r\n    mapping(address => uint256) public donations;\r\n    address public admin;\r\n\r\n    event DonationReceived(address indexed donor, uint256 amount);\r\n\r\n    constructor() {\r\n        admin = msg.sender;\r\n    }\r\n\r\n    function donate() external payable {\r\n        donations[msg.sender] += msg.value;\r\n        emit DonationReceived(msg.sender, msg.value);\r\n    }\r\n\r\n    function withdraw(uint256 amount, address payable recipient) external {\r\n        require(msg.sender == admin, \"Only admin can withdraw\");\r\n        recipient.transfer(amount);\r\n    }\r\n}",
  "sourcePath": "D:\\Bluechip technologies\\Blockchain dev\\2024\\DAO\\charityDAO\\charity-dao\\contracts\\donation.sol",
  "compiler": {
    "name": "solc",
    "version": "0.8.20+commit.a1b79de6.Emscripten.clang"
  },
  "schemaVersion": "3.4.14",
  "updatedAt": "2024-07-15T10:47:50.202Z",
  "devdoc": {
    "kind": "dev",
    "methods": {},
    "version": 1
  },
  "userdoc": {
    "kind": "user",
    "methods": {},
    "version": 1
  }
}