{
  "contractName": "proposal",
  "abi": [
    {
      "inputs": [],
      "stateMutability": "nonpayable",
      "type": "constructor"
    },
    {
      "anonymous": false,
      "inputs": [
        {
          "indexed": false,
          "internalType": "uint256",
          "name": "id",
          "type": "uint256"
        },
        {
          "indexed": false,
          "internalType": "string",
          "name": "description",
          "type": "string"
        },
        {
          "indexed": false,
          "internalType": "uint256",
          "name": "amount",
          "type": "uint256"
        },
        {
          "indexed": false,
          "internalType": "address",
          "name": "recipient",
          "type": "address"
        }
      ],
      "name": "ProposalCreated",
      "type": "event"
    },
    {
      "anonymous": false,
      "inputs": [
        {
          "indexed": false,
          "internalType": "uint256",
          "name": "id",
          "type": "uint256"
        }
      ],
      "name": "ProposalExecuted",
      "type": "event"
    },
    {
      "anonymous": false,
      "inputs": [
        {
          "indexed": false,
          "internalType": "uint256",
          "name": "id",
          "type": "uint256"
        },
        {
          "indexed": false,
          "internalType": "address",
          "name": "voter",
          "type": "address"
        }
      ],
      "name": "ProposalVoted",
      "type": "event"
    },
    {
      "inputs": [],
      "name": "admin",
      "outputs": [
        {
          "internalType": "address",
          "name": "",
          "type": "address"
        }
      ],
      "stateMutability": "view",
      "type": "function"
    },
    {
      "inputs": [],
      "name": "nextProposalId",
      "outputs": [
        {
          "internalType": "uint256",
          "name": "",
          "type": "uint256"
        }
      ],
      "stateMutability": "view",
      "type": "function"
    },
    {
      "inputs": [
        {
          "internalType": "uint256",
          "name": "",
          "type": "uint256"
        }
      ],
      "name": "proposals",
      "outputs": [
        {
          "internalType": "uint256",
          "name": "id",
          "type": "uint256"
        },
        {
          "internalType": "string",
          "name": "description",
          "type": "string"
        },
        {
          "internalType": "uint256",
          "name": "amount",
          "type": "uint256"
        },
        {
          "internalType": "address payable",
          "name": "recipient",
          "type": "address"
        },
        {
          "internalType": "uint256",
          "name": "votes",
          "type": "uint256"
        },
        {
          "internalType": "bool",
          "name": "executed",
          "type": "bool"
        }
      ],
      "stateMutability": "view",
      "type": "function"
    },
    {
      "inputs": [
        {
          "internalType": "address",
          "name": "",
          "type": "address"
        }
      ],
      "name": "voters",
      "outputs": [
        {
          "internalType": "bool",
          "name": "",
          "type": "bool"
        }
      ],
      "stateMutability": "view",
      "type": "function"
    },
    {
      "inputs": [
        {
          "internalType": "string",
          "name": "description",
          "type": "string"
        },
        {
          "internalType": "uint256",
          "name": "amount",
          "type": "uint256"
        },
        {
          "internalType": "address payable",
          "name": "recipient",
          "type": "address"
        }
      ],
      "name": "createProposal",
      "outputs": [],
      "stateMutability": "nonpayable",
      "type": "function"
    },
    {
      "inputs": [
        {
          "internalType": "uint256",
          "name": "id",
          "type": "uint256"
        }
      ],
      "name": "vote",
      "outputs": [],
      "stateMutability": "nonpayable",
      "type": "function"
    },
    {
      "inputs": [
        {
          "internalType": "uint256",
          "name": "id",
          "type": "uint256"
        }
      ],
      "name": "executeProposal",
      "outputs": [],
      "stateMutability": "nonpayable",
      "type": "function"
    }
  ],
  "bytecode": "0x608060405234801561000f575f80fd5b503360015f6101000a81548173ffffffffffffffffffffffffffffffffffffffff021916908373ffffffffffffffffffffffffffffffffffffffff1602179055506112b98061005d5f395ff3fe608060405234801561000f575f80fd5b506004361061007b575f3560e01c80632ab09d14116100595780632ab09d14146100ec5780636ac1e01f1461010a578063a3ec138d14610126578063f851a440146101565761007b565b80630121b93f1461007f578063013cf08b1461009b5780630d61b519146100d0575b5f80fd5b61009960048036038101906100949190610849565b610174565b005b6100b560048036038101906100b09190610849565b6102cb565b6040516100c796959493929190610966565b60405180910390f35b6100ea60048036038101906100e59190610849565b6103c2565b005b6100f46105cc565b60405161010191906109cc565b60405180910390f35b610124600480360381019061011f9190610b3b565b6105d2565b005b610140600480360381019061013b9190610be2565b6107c3565b60405161014d9190610c0d565b60405180910390f35b61015e6107e0565b60405161016b9190610c35565b60405180910390f35b60025f3373ffffffffffffffffffffffffffffffffffffffff1673ffffffffffffffffffffffffffffffffffffffff1681526020019081526020015f205f9054906101000a900460ff16156101fe576040517f08c379a00000000000000000000000000000000000000000000000000000000081526004016101f590610c98565b60405180910390fd5b5f80828154811061021257610211610cb6565b5b905f5260205f2090600602019050806004015f81548092919061023490610d10565b9190505550600160025f3373ffffffffffffffffffffffffffffffffffffffff1673ffffffffffffffffffffffffffffffffffffffff1681526020019081526020015f205f6101000a81548160ff0219169083151502179055507f34647120636ce03d739347e28e9d1bdd34fd03d066ae60439fb1be2721ad16cd82336040516102bf929190610d57565b60405180910390a15050565b5f81815481106102d9575f80fd5b905f5260205f2090600602015f91509050805f0154908060010180546102fe90610dab565b80601f016020809104026020016040519081016040528092919081815260200182805461032a90610dab565b80156103755780601f1061034c57610100808354040283529160200191610375565b820191905f5260205f20905b81548152906001019060200180831161035857829003601f168201915b505050505090806002015490806003015f9054906101000a900473ffffffffffffffffffffffffffffffffffffffff1690806004015490806005015f9054906101000a900460ff16905086565b5f8082815481106103d6576103d5610cb6565b5b905f5260205f209060060201905060015f9054906101000a900473ffffffffffffffffffffffffffffffffffffffff1673ffffffffffffffffffffffffffffffffffffffff163373ffffffffffffffffffffffffffffffffffffffff1614610473576040517f08c379a000000000000000000000000000000000000000000000000000000000815260040161046a90610e25565b60405180910390fd5b806005015f9054906101000a900460ff16156104c4576040517f08c379a00000000000000000000000000000000000000000000000000000000081526004016104bb90610e8d565b60405180910390fd5b5f81600401541161050a576040517f08c379a000000000000000000000000000000000000000000000000000000000815260040161050190610ef5565b60405180910390fd5b806003015f9054906101000a900473ffffffffffffffffffffffffffffffffffffffff1673ffffffffffffffffffffffffffffffffffffffff166108fc826002015490811502906040515f60405180830381858888f19350505050158015610574573d5f803e3d5ffd5b506001816005015f6101000a81548160ff0219169083151502179055507f712ae1383f79ac853f8d882153778e0260ef8f03b504e2866e0593e04d2b291f826040516105c091906109cc565b60405180910390a15050565b60035481565b60015f9054906101000a900473ffffffffffffffffffffffffffffffffffffffff1673ffffffffffffffffffffffffffffffffffffffff163373ffffffffffffffffffffffffffffffffffffffff1614610661576040517f08c379a000000000000000000000000000000000000000000000000000000000815260040161065890610f5d565b60405180910390fd5b5f6040518060c0016040528060035481526020018581526020018481526020018373ffffffffffffffffffffffffffffffffffffffff1681526020015f81526020015f1515815250908060018154018082558091505060019003905f5260205f2090600602015f909190919091505f820151815f015560208201518160010190816106ec9190611118565b50604082015181600201556060820151816003015f6101000a81548173ffffffffffffffffffffffffffffffffffffffff021916908373ffffffffffffffffffffffffffffffffffffffff1602179055506080820151816004015560a0820151816005015f6101000a81548160ff02191690831515021790555050507f98504bc76d855fac343248bdddc062a45d467777dd16a83e57e505f8121562f360035484848460405161079f9493929190611239565b60405180910390a160035f8154809291906107b990610d10565b9190505550505050565b6002602052805f5260405f205f915054906101000a900460ff1681565b60015f9054906101000a900473ffffffffffffffffffffffffffffffffffffffff1681565b5f604051905090565b5f80fd5b5f80fd5b5f819050919050565b61082881610816565b8114610832575f80fd5b50565b5f813590506108438161081f565b92915050565b5f6020828403121561085e5761085d61080e565b5b5f61086b84828501610835565b91505092915050565b61087d81610816565b82525050565b5f81519050919050565b5f82825260208201905092915050565b5f5b838110156108ba57808201518184015260208101905061089f565b5f8484015250505050565b5f601f19601f8301169050919050565b5f6108df82610883565b6108e9818561088d565b93506108f981856020860161089d565b610902816108c5565b840191505092915050565b5f73ffffffffffffffffffffffffffffffffffffffff82169050919050565b5f6109368261090d565b9050919050565b6109468161092c565b82525050565b5f8115159050919050565b6109608161094c565b82525050565b5f60c0820190506109795f830189610874565b818103602083015261098b81886108d5565b905061099a6040830187610874565b6109a7606083018661093d565b6109b46080830185610874565b6109c160a0830184610957565b979650505050505050565b5f6020820190506109df5f830184610874565b92915050565b5f80fd5b5f80fd5b7f4e487b71000000000000000000000000000000000000000000000000000000005f52604160045260245ffd5b610a23826108c5565b810181811067ffffffffffffffff82111715610a4257610a416109ed565b5b80604052505050565b5f610a54610805565b9050610a608282610a1a565b919050565b5f67ffffffffffffffff821115610a7f57610a7e6109ed565b5b610a88826108c5565b9050602081019050919050565b828183375f83830152505050565b5f610ab5610ab084610a65565b610a4b565b905082815260208101848484011115610ad157610ad06109e9565b5b610adc848285610a95565b509392505050565b5f82601f830112610af857610af76109e5565b5b8135610b08848260208601610aa3565b91505092915050565b610b1a8161092c565b8114610b24575f80fd5b50565b5f81359050610b3581610b11565b92915050565b5f805f60608486031215610b5257610b5161080e565b5b5f84013567ffffffffffffffff811115610b6f57610b6e610812565b5b610b7b86828701610ae4565b9350506020610b8c86828701610835565b9250506040610b9d86828701610b27565b9150509250925092565b5f610bb18261090d565b9050919050565b610bc181610ba7565b8114610bcb575f80fd5b50565b5f81359050610bdc81610bb8565b92915050565b5f60208284031215610bf757610bf661080e565b5b5f610c0484828501610bce565b91505092915050565b5f602082019050610c205f830184610957565b92915050565b610c2f81610ba7565b82525050565b5f602082019050610c485f830184610c26565b92915050565b7f596f75206861766520616c726561647920766f746564000000000000000000005f82015250565b5f610c8260168361088d565b9150610c8d82610c4e565b602082019050919050565b5f6020820190508181035f830152610caf81610c76565b9050919050565b7f4e487b71000000000000000000000000000000000000000000000000000000005f52603260045260245ffd5b7f4e487b71000000000000000000000000000000000000000000000000000000005f52601160045260245ffd5b5f610d1a82610816565b91507fffffffffffffffffffffffffffffffffffffffffffffffffffffffffffffffff8203610d4c57610d4b610ce3565b5b600182019050919050565b5f604082019050610d6a5f830185610874565b610d776020830184610c26565b9392505050565b7f4e487b71000000000000000000000000000000000000000000000000000000005f52602260045260245ffd5b5f6002820490506001821680610dc257607f821691505b602082108103610dd557610dd4610d7e565b5b50919050565b7f4f6e6c792061646d696e2063616e20657865637574652070726f706f73616c735f82015250565b5f610e0f60208361088d565b9150610e1a82610ddb565b602082019050919050565b5f6020820190508181035f830152610e3c81610e03565b9050919050565b7f50726f706f73616c20616c7265616479206578656375746564000000000000005f82015250565b5f610e7760198361088d565b9150610e8282610e43565b602082019050919050565b5f6020820190508181035f830152610ea481610e6b565b9050919050565b7f50726f706f73616c20686173206e6f20766f74657300000000000000000000005f82015250565b5f610edf60158361088d565b9150610eea82610eab565b602082019050919050565b5f6020820190508181035f830152610f0c81610ed3565b9050919050565b7f4f6e6c792061646d696e2063616e206372656174652070726f706f73616c73005f82015250565b5f610f47601f8361088d565b9150610f5282610f13565b602082019050919050565b5f6020820190508181035f830152610f7481610f3b565b9050919050565b5f819050815f5260205f209050919050565b5f6020601f8301049050919050565b5f82821b905092915050565b5f60088302610fd77fffffffffffffffffffffffffffffffffffffffffffffffffffffffffffffffff82610f9c565b610fe18683610f9c565b95508019841693508086168417925050509392505050565b5f819050919050565b5f61101c61101761101284610816565b610ff9565b610816565b9050919050565b5f819050919050565b61103583611002565b61104961104182611023565b848454610fa8565b825550505050565b5f90565b61105d611051565b61106881848461102c565b505050565b5b8181101561108b576110805f82611055565b60018101905061106e565b5050565b601f8211156110d0576110a181610f7b565b6110aa84610f8d565b810160208510156110b9578190505b6110cd6110c585610f8d565b83018261106d565b50505b505050565b5f82821c905092915050565b5f6110f05f19846008026110d5565b1980831691505092915050565b5f61110883836110e1565b9150826002028217905092915050565b61112182610883565b67ffffffffffffffff81111561113a576111396109ed565b5b6111448254610dab565b61114f82828561108f565b5f60209050601f831160018114611180575f841561116e578287015190505b61117885826110fd565b8655506111df565b601f19841661118e86610f7b565b5f5b828110156111b557848901518255600182019150602085019450602081019050611190565b868310156111d257848901516111ce601f8916826110e1565b8355505b6001600288020188555050505b505050505050565b5f6112016111fc6111f78461090d565b610ff9565b61090d565b9050919050565b5f611212826111e7565b9050919050565b5f61122382611208565b9050919050565b61123381611219565b82525050565b5f60808201905061124c5f830187610874565b818103602083015261125e81866108d5565b905061126d6040830185610874565b61127a606083018461122a565b9594505050505056fea2646970667358221220749f4236a8fc04a46a563f47a67205b56fbd29904c347f58a983c478d24a98aa64736f6c63430008140033",
  "immutableReferences": {},
  "source": "// SPDX-License-Identifier: MIT\r\npragma solidity ^0.8.20;\r\n\r\ncontract proposal {\r\n    struct Proposal {\r\n        uint id;\r\n        string description;\r\n        uint256 amount;\r\n        address payable recipient;\r\n        uint votes;\r\n        bool executed;\r\n    }\r\n\r\n    Proposal[] public proposals;\r\n    address public admin;\r\n    mapping(address => bool) public voters;\r\n    uint public nextProposalId; \r\n\r\n    event ProposalCreated(uint id,string description, uint256 amount, address recipient);\r\n    event ProposalVoted(uint id, address voter);\r\n    event ProposalExecuted(uint id);\r\n\r\n    constructor() {\r\n        admin = msg.sender;\r\n    }\r\n\r\n    function createProposal(string memory description, uint256 amount, address payable recipient) external {\r\n        require(msg.sender == admin, \"Only admin can create proposals\");\r\n        proposals.push(Proposal(nextProposalId, description, amount, recipient,0, false));\r\n        emit ProposalCreated(nextProposalId, description, amount, recipient);\r\n        nextProposalId++;\r\n    }\r\n\r\n    function vote(uint id) external {\r\n        require(!voters[msg.sender], \"You have already voted\");\r\n        Proposal storage proposal = proposals[id];\r\n        proposal.votes++;\r\n        voters[msg.sender] = true;\r\n        emit ProposalVoted(id,msg.sender);\r\n    }\r\n\r\n    function executeProposal(uint id) external {\r\n        Proposal storage proposal = proposals[id];\r\n        require(msg.sender == admin, \"Only admin can execute proposals\");\r\n        require(!proposal.executed, \"Proposal already executed\");\r\n        require(proposal.votes > 0, \"Proposal has no votes\");\r\n        proposal.recipient.transfer(proposal.amount);\r\n        proposal.executed = true;\r\n        emit ProposalExecuted(id);\r\n    }\r\n}",
  "sourcePath": "D:\\Bluechip technologies\\Blockchain dev\\2024\\DAO\\charityDAO\\charity-dao\\contracts\\proposal.sol",
  "compiler": {
    "name": "solc",
    "version": "0.8.20+commit.a1b79de6.Emscripten.clang"
  },
  "schemaVersion": "3.4.14",
  "updatedAt": "2024-07-15T10:47:50.235Z",
  "devdoc": {
    "kind": "dev",
    "methods": {},
    "version": 1
  },
  "userdoc": {
    "kind": "user",
    "methods": {},
    "version": 1
  }
}